:1000000032C00000FDCF0000FBCF0000F9CF0000A0
:10001000F7CF0000F5CF0000F3CF0000F1CF0000D4
:100020002FC0000028C00000EBCF0000E9CF000087
:10003000E7CF00001BC00000E3CF0000E1CF0000CD
:10004000DFCF0000DDCF0000DBCF0000D9CF000004
:10005000D7CF0000D5CF0000D3CF0000D1CF000014
:06006000CFCF0000CDCF60
:10006600E6E4F6E10994EF93FF93E8EEF6E10994EE
:10007600EF93FF93E7E4F5E10994EF93FF93E2E54D
:04008600F5E1099403
:102C8C00BFEFBDBFB8E0BEBFF6D6CDB7DEB721975C
:102C9C00CDBFDEBF21962F923F924F925F92BFB76E
:102CAC00BF77BFBFF0D823EA17E503E00A95F1F729
:102CBC001A95E1F72A95D1F70000B4E64B2EB0E057
:102CCC005B2EBCED2B2EB5E03B2E9ADCB0E0B8832E
:102CDC00EDEDF5E009950881003011F401E001C03B
:102CEC0000E0502EBCE03B2EB3E04B2E2224EDED49
:102CFC00FDE009950881013011F401E001C000E00C
:102D0C00502EB1ED3B2EB1E04B2EB1E02B2EEDED64
:102D1C00FDE009950881023011F401E001C000E0EA
:102D2C00502EBBE33B2EB2E04B2EB2E02B2EEDED42
:102D3C00FDE009950881033011F401E001C000E0C9
:102D4C00502EBDEF3B2EB2E04B2EB3E02B2EEDED13
:102D5C00FDE009952BDD102F0030E1F31330B1F4B9
:102D6C0008C0F0DDB5CFC7D8B3CF67D9B1CF5CDA27
:102D7C00AFCF08810030A9F308810130A1F308819D
:102D8C00023099F30881033091F314C0113039F4F7
:102D9C00088101301CF00881015008830BC01230EF
:102DAC0039F4088103301CF408810F5F088302C0DA
:102DBC00163001F48DCF5F904F903F902F90FFCF46
:002DCC0007
:101E92002F923F924F925F926F92B7EEB4B9BFEF1B
:101EA200BAB9BFEFB7B9B0E0BBB99ED94424B5E225
:101EB2002B2EB0E03B2ED3D9EDEDF5E0099566244B
:101EC200B3E14B2EB4E05B2EB1E03B2EB1E02B2E02
:101ED2003ED95524BFEC3B2EB3E04B2EB4E02B2E63
:101EE2006BDEB1E05B2EB0EC3B2EB3E04B2EB5E0E7
:101EF2002B2E62DE6F905F904F903F902F9008954F
:001F0200DF
:1011EA002F923F92B0E0BBB9B5B1B062B5B9D0DCCD
:1011FA00B5B1BF7DB5B9CCDCB5B1B062B5B9C8DCA3
:10120A00B1E22B2ED0DCB0EC2B2ECDDCB2E12B2EB2
:10121A00CADCB0E22B2EC7DCB9E02B2EC4DCC8DC5A
:10122A00B8E02B2EC0DCBCE02B2EBDDC33242224FC
:08123A00E7D83F902F900895C2
:100B9A0029E01EE105EE0A95F1F71A95E1F72A9583
:060BAA00D1F700000895E0
:0A0BB000BBB1BF7EBBB909DC08959C
:1003CA0018E000E00117C0F4BBB1BF77BBB9022D3A
:1003DA000078003821F4BBB1B064BBB903C0BBB12B
:1003EA00BF7BBBB9BBB1B068BBB9022D000F202ED1
:1003FA00012F0150102FE5CFBBB1BF77BBB90895CC
:00040A00F2
:100BBA002F923F923324222423DC28EF31E000E0F5
:100BCA0010E0021713073CF42224D2DB89010150FA
:0C0BDA0010409801F4CF3F902F90089538
:10040A002F92032D00642F92202ECDD32F90022DF0
:0A041A000068202EC8D32F9008952B
:0A037A00BBB1B061BBB924D00895F7
:10126000B42D31E0BB2319F0330FBA95E9F7309371
:10127000A605032F00950093AB052092A705309299
:10128000A805122D232D115020401093A90520935D
:10129000AA05E12FF22F0081032BE12FF22F00830B
:1012A000E091A705F091A80510810091AB050123FD
:0C12B000E091A705F091A80500830895C7
:10115000CF93DF93CDB7DEB72297CDBFDEBF219609
:101160003F922F92120109DD2F903F90088319833F
:101170004CD9B0E06B16C9F420E030E00881198149
:10118000201731078CF4F901E40DF51D00813F9320
:101190002F932F92202E8FDC2F902F913F9189013A
:1011A0000F5F1F4F9801EACF1AC040E050E09A014C
:1011B000088119812017310794F4F901E40DF51D18
:1011C00000813F932F932F92202E8BDC2F902F9115
:1011D0003F9189010F5F1F4FA8019A01E9CF219626
:0A11E000CDBFDEBFDF91CF9108956F
:100B7A009101F90189010F5F1F4F9801008100233C
:100B8A0009F0F7CF8901021913090150104008959D
:000B9A005B
:100AB6002F9211DD2090AC055DDC2090AD055ADC4F
:100AC6002090AE0557DC2090AF0554DC2090B00591
:0C0AD60051DC2090B1054EDC2F900895FB
:1004DC00222D30E0220F331F220F331F220F331F28
:1004EC0002EE1DE2F901E00FF11F04910093AC053F
:1004FC002F5F3F4F02EE1DE2F901E00FF11F049157
:10050C000093AD052F5F3F4F02EE1DE2F901E00FA6
:10051C00F11F04910093AE052F5F3F4F02EE1DE2D9
:10052C00F901E00FF11F04910093AF052F5F3F4FCE
:10053C0002EE1DE2F901E00FF11F04910093B005EA
:10054C002F5F3F4F02EE1DE2F901E00FF11F049106
:0C055C000093B105B0E0B093B205089523
:100AE2002F92FBDC0091AC050095202E45DC009195
:100AF200AD050095202E40DC0091AE050095202E1C
:100B02003BDC0091AF050095202E36DC0091B0054C
:100B12000095202E31DC0091B1050095202E2CDCB1
:040B22002F90089573
:101BBA00CF93DF93CDB7DEB72F97CDBFDEBF219688
:101BCA002F924F923F92322C2224E5E0F2E00995BF
:101BDA003F904F9020E02E306CF48E01E22FF0E01F
:101BEA0027FDFFEFE00FF11FB0E2B083022F0F5F76
:101BFA00202FF1CF8E01F8013E96B0E0B0834F92CC
:101C0A003F922F92232C342CEDEBF5E009952F907F
:101C1A003F904F90202F002EB0E007FDBFEF1B2E04
:101C2A000EE010E0001911092F935F924F923F9234
:101C3A002F9242E050E0E3E9F5E009958B012F90FD
:101C4A003F904F905F902F91102F60E050E0422F0D
:101C5A00103039F0012F0150102F062F0F5F602F1F
:101C6A00F7CF5417BCF48E01262F30E067FD3FEF03
:101C7A00200F311FE52FF0E057FDFFEFE30DF41DB4
:101C8A000081F9010083062F0F5F602F052F0F5F78
:101C9A00502FE7CF20E02E3044F5B0E05B1689F4F0
:101CAA008E01E22FF0E027FDFFEFE00FF11F008128
:101CBA002F932F92202EEBE5F5E009952F902F9187
:101CCA0010C08E01E22FF0E027FDFFEFE00FF11FB9
:101CDA0000812F932F92202EE1E7F5E009952F90AE
:101CEA002F91022F0F5F202FD6CF2F902E96CDBF88
:081CFA00DEBFDF91CF910895D8
:100B2600C801BA0197FB092E07260AD077FD04D023
:100B36000CD006D000201AF4709561957F4F089569
:100B4600F6F7909581959F4F0895AA1BBB1B51E11F
:100B560007C0AA1FBB1FA617B70710F0A61BB70B27
:100B6600881F991F5A95A9F780959095BC01CD01CC
:040B76000895089541
:10260C00CF93DF93CDB7DEB72497CDBFDEBF219636
:10261C0035DC48EE53E060E070E0CAD9A10160E01F
:10262C00762FA4D98B019C01369527951795079584
:10263C000883198323DCA20160E0762FB9D9488185
:10264C00598160E0762F440F551F661F771F8ED976
:10265C008B019C01A801B9017F936F935F934F93FA
:10266C004AE050E008811981CDD98C014F915F91DE
:10267C006F917F910883198300E010E020E030E037
:10268C00041715072607370708F07DC0E091A7054A
:10269C00F091A80510810091A605012BE091A705EA
:1026AC00F091A80500838E01F8013196008100237A
:1026BC0019F1B0E0BA83BB83342F452F562F672F07
:1026CC008E01F801319620810A811B810217B0E03E
:1026DC001B0768F43F922F92222484D92F903F90AD
:1026EC000A811B810F5F1F4F0A831B83E9CF762F53
:1026FC00652F542F432F00C0FE0100813F922F9273
:10270C00202E70D92F903F90E091A705F091A8054D
:10271C0010810091AB050123E091A705F091A8056C
:10272C0000838E01F801319600810023D9F0B0E0CE
:10273C00BA83BB838E01F801319620810A811B81FB
:10274C000217B0E01B0768F43F922F9222244AD95B
:10275C002F903F900A811B810F5F1F4F0A831B83B1
:10276C00E9CF00C0FE0100813F922F92202E3AD972
:10277C002F903F908A019B01015010402040304027
:10278C00A801B90179CFE091A705F091A8051081B6
:10279C000091AB050123E091A705F091A8050083FA
:0C27AC002396CDBFDEBFDF91CF910895D2
:0A1E880000E81EE320E030E00895BA
:1019F000022C022CB4E00B1A00E0001530F4B1E028
:101A00000B1A000000000000F7CF0000000008954E
:001A1000D6
:1019BC00BB27AA279927882700FF04C0840F951FEF
:1019CC00A61FB71F440F551F661F771F3695279507
:1019DC001795079589F730502040100769F79D013E
:0419EC008C010895CD
:10197800C9019A01AB01B801A1E21A2EAA1BBB1B2F
:10198800FD010DC0AA1FBB1FEE1FFF1FA217B30743
:10199800E407F50720F0A20BB30BE40BF50B661F69
:1019A800771F881F991F1A9469F76095709580951D
:0419B8009095089569
:101A1000C801BA01AA1BBB1B51E107C0AA1FBB1F0B
:101A2000A617B70710F0A61BB70B881F991F5A956A
:081A3000A9F780959095089537
:1027B8002F923F924F925F9203B108710093B70531
:1027C800083111F400E0BBC0B0E0B093B305B0939A
:1027D800B405B093B505B093B6050091B305109153
:1027E800B4052091B5053091B605A801B9014F5F30
:1027F8005F4F6F4F7F4F4093B3055093B40560937D
:10280800B5057093B60500E41DE023E030E0041739
:1028180015072607370708F051C04091B3055091B6
:10282800B4056091B5057091B60500EA1BEB2DE083
:1028380030E0041715072607370710F400E07FC0BB
:102848000091B705003021F4B6E0B093B7050BC08E
:102858000091B705083021F4B4E0B093B70503C080
:10286800B5E0B093B705B4E14B2EB0E05B2EB0ED08
:102878002B2EB7E03B2EC6DEBAE04B2EB0E05B2E27
:10288800B8EB2B2EBBE03B2EBDDEB4E14B2EB0E007
:102898005B2EB0EA2B2EBFE03B2EB4DEBAE04B2E07
:1028A800B0E05B2EB0ED2B2EB7E03B2EABDE03B1D4
:1028B80008710831E1F70091B70541C003B1202F35
:1028C80028710091B70510E007FD1FEF0217B0E06F
:1028D8001B0709F482CF0091B3051091B40520912C
:1028E800B5053091B605303029F4203019F41E337F
:1028F80009F4003810F400E022C00091B705003058
:1029080021F4B3E0B093B7050BC00091B7050830C8
:1029180021F4B1E0B093B70503C0B2E0B093B705B6
:10292800BAE04B2EB0E05B2EB8EE2B2EB3E03B2E78
:1029380069DE03B108710831E1F70091B7055F90CE
:082948004F903F902F9008957D
:10295000CF93DF93CDB7DEB72297CDBFDEBF2196F1
:102960002F923F924F925F92BFB7BF77BFBFB7EE34
:10297000B4B9BFEFBAB9BFEFB7B9B0E0BBB9B0E017
:10298000B88322243324F3D8098316E1101710F4F6
:10299000BAE0B98329809FD8EDEDF5E0099508816B
:1029A000003011F401E001C000E0502EBEEF3B2EDC
:1029B000B4E04B2E222401D90881013011F401E04A
:1029C00001C000E0502EBEE93B2EB4E04B2EB1E03A
:1029D0002B2EF3D80981202F30E0220F331F0BED6F
:1029E00013E0F901E00FF11F019111915524302EF0
:1029F000412EB5E02B2EE1D8DFDE102F0030E1F3C1
:102A00001330A1F409C0EEE5F9E00995C5CFE9E07E
:102A1000FBE009950AC009C008810030A1F30881D4
:102A20000130A9F308810230B1F326C0113039F426
:102A30000881013018F00881015008831DC0123050
:102A400039F40881013018F408810F5F088314C03D
:102A5000163009F412C0153079F4E5EDF6E0099569
:102A60002224332484D8098316E1101710F4BAE025
:102A7000B983298030D890CF8FCF5F904F903F900F
:0E2A80002F902196CDBFDEBFDF91CF9108953C
:101B6E00CF93DF93CDB7DEB72297CDBFDEBF2196E1
:101B7E00288239820FB6BFB3B1FF01C0FCCFF894F3
:101B8E001C2F2D2FE12FF22F3196008102BDE12F58
:101B9E00F22F008101BDBFB3B160BFBB0FBE00B558
:0C1BAE002196CDBFDEBFDF91CF910895DE
:101AD600CF93DF93CDB7DEB72297CDBFDEBF21967A
:101AE600B8B1BF7DB8B9B0E0B8830881083060F4FA
:101AF600B8B1B061B8B9B3D8B8B1BF7EB8B9AFD8CC
:101B060008810F5F0883F1CF03E613E0E22DF0E0D2
:101B160027FCFFEFE00FF11F00810983B0E0B883D7
:101B260008810830D8F409810078003821F4B8B16A
:101B3600B062B8B903C0B8B1BF7DB8B98BD8B8B177
:101B4600B061B8B98CD8B8B1BF7EB8B988D80981A8
:101B5600000F098308810F5F0883E2CF2196CDBF6E
:081B6600DEBFDF91CF9108956D
:100C64001BE008E50A95F1F71A95E1F700000895ED
:000C740080
:0A0C5A0005E70A95F1F70000089580
:1012BC00CF93DF93CDB7DEB72197CDBFDEBF21969D
:1012CC002F923F924F925F92BFB7BF77BFBFB0E0F4
:1012DC00BBB9B2E0B88329E11AE502EB0A95F1F744
:1012EC001A95E1F72A95D1F70000000060DC55242F
:1012FC00BEEF3B2EB4E04B2E222459D40881023091
:10130C0011F401E001C000E0502EBFEE3B2EB4E022
:10131C004B2EB2E02B2E4BD40881033011F401E09C
:10132C0001C000E0502EB7EE3B2EB4E04B2EB3E0E4
:10133C002B2E3DD40881043011F401E001C000E0F3
:10134C00502EB8E93B2EB5E04B2EB4E02B2E2FD40B
:10135C000881053011F401E001C000E0502EBAE51F
:10136C003B2EB5E04B2EB5E02B2E21D4ECEDF3E16A
:10137C000995102F0030D1F31F9309DC1F91133006
:10138C0009F01EC10CC129E11AE502EB0A95F1F72F
:10139C001A95E1F72A95D1F700000000B0E0B09360
:1013AC00BA0505DCB1E05B2EBEEF3B2EB4E04B2E54
:1013BC002224FDD35524BDE63B2EB4E04B2EB2E0E7
:1013CC002B2EF5D35524BFEE3B2EB4E04B2EB4E0C0
:1013DC002B2EEDD302DCBFB7B068BFBFB3B1B4FDE9
:1013EC00FDCFBFB7BF77BFBF0091B10000700093B6
:1013FC00B10000918100007000938100B3B1B4FD85
:10140C0004C0B3B1B3FD01C066CF00C029E11AE539
:10141C0002EB0A95F1F71A95E1F72A95D1F700003E
:10142C000000B1E0B093BA05C2DBB1E05B2EBEEFB9
:10143C003B2EB4E04B2E2224BAD35524BDE63B2ED2
:10144C00B4E04B2EB2E02B2EB2D35524B7EE3B2E8C
:10145C00B4E04B2EB4E02B2EAAD3BFDBBFB7B068E1
:10146C00BFBFB3B1B4FDFDCFBFB7BF77BFBF009156
:10147C00B10000700093B1000091810000700093E6
:10148C008100B3B1B4FD04C0B3B1B3FD01C023CF2F
:10149C0000C0B2E0B093BA0529E11AE502EB0A9557
:1014AC00F1F71A95E1F72A95D1F7000000007FDBE0
:1014BC00B1E05B2EBEEF3B2EB4E04B2E222477D353
:1014CC005524BDE63B2EB4E04B2EB2E02B2E6FD351
:1014DC005524B8E93B2EB5E04B2EB4E02B2E67D348
:1014EC007CDBBFB7B068BFBFB3B1B4FDFDCFBFB736
:1014FC00BF77BFBF0091B10000700093B1000091A5
:10150C008100007000938100B3B1B4FD04C0B3B18D
:10151C00B3FD01C0E0CE00C0B3E0B093BA0529E141
:10152C001AE502EB0A95F1F71A95E1F72A95D1F72E
:10153C00000000003CDBB1E05B2EBEEF3B2EB4E0C4
:10154C004B2E222434D35524BDE63B2EB4E04B2E37
:10155C00B2E02B2E2CD35524BAE53B2EB5E04B2E06
:10156C00B4E02B2E24D339DBBFB7B068BFBFB3B107
:10157C00B4FDFDCFBFB7BF77BFBF0091B100007006
:10158C000093B10000918100007000938100B3B111
:10159C00B4FD04C0B3B1B3FD01C09DCEF4CE08813F
:1015AC00023009F4F0CE0881033009F42FCF088102
:1015BC00043009F46ECF0881053009F4ADCF19C0A1
:1015CC00113041F4188102E001171CF4088101501C
:1015DC0008830FC0123039F4088105301CF40881DF
:1015EC000F5F088306C0163021F4BFB7BF77BFBFAB
:1015FC0001C071CE5F904F903F902F90CDBFDEBF5A
:06160C00DF91CF9108956B
:100BE60026DB0091B00003630093B0000091B100D2
:100BF600102F18601093B100BFE3B093B300B7E0B5
:100C0600B093B400B0E0B7BB0091700005600093EC
:100C16007000012F02600093B10000918000006314
:100C260000938000B4E0B0938700B3E1B0938600F0
:100C360002600093800000918100086100938100AA
:100C4600B0E0B0938B00B3E0B0938A0004600093E9
:040C5600810008957C
:10023400B0E0B4BDB0E0B5BDB0E0B7BDB0E0B8BDAE
:10024400B0E0B5BBB0E0B0936E00B0E0B6BDB0E0D6
:10025400B0938000B0E0B0938100B0E0B09382002E
:10026400B0E0B0938500B0E0B0938400B0E0B09308
:100274008900B0E0B0938800B0E0B0938B00B0E0A8
:10028400B0938A00B0E0B0938700B0E0B0938600EA
:10029400B0E0B0936F00B0E0B6BBB0E0B093B00094
:1002A400B0E0B093B100B0E0B093B300B0E0B0936D
:1002B400B400B0E0B7BBB0E0B0937000B0E0B0936E
:0E02C400B600B0E0B3BDB0E0B093B200089554
:10161200CF93DF93CDB7DEB72197CDBFDEBF219643
:101622002F923F924F925F92BFB7BF77BFBFB0E09A
:10163200BBB9B2E0B88329E11AE502EB0A95F1F7EA
:101642001A95E1F72A95D1F700000000B5DA552482
:10165200BEE93B2EB4E04B2E2224AED208810230EA
:1016620011F401E001C000E0502EBFEE3B2EB4E0C9
:101672004B2EB2E02B2EA0D20881033011F401E0F0
:1016820001C000E0502EB7EE3B2EB4E04B2EB3E08B
:101692002B2E92D20881043011F401E001C000E047
:1016A200502EB8E93B2EB5E04B2EB4E02B2E84D25F
:1016B2000881053011F401E001C000E0502EBAE5C6
:1016C2003B2EB5E04B2EB5E02B2E76D2ECEDF3E1BE
:1016D2000995102F0030D1F31F935EDA1F9113305A
:1016E20009F026C114C129E11AE502EB0A95F1F7C6
:1016F2001A95E1F72A95D1F700000000B4E0B09303
:10170200BA055ADAB1E05B2EBEE93B2EB4E04B2EAD
:10171200222452D25524BDE63B2EB4E04B2EB2E039
:101722002B2E4AD25524BFEE3B2EB4E04B2EB4E012
:101732002B2E42D2EBEFF2E00995BFB7B068BFBFE4
:10174200B3B1B4FDFDCFBFB7BF77BFBF0091B1004A
:1017520000700093B100009181000070009381003D
:10176200B3B1B4FD04C0B3B1B3FD01C064CF00C0D6
:1017720029E11AE502EB0A95F1F71A95E1F72A95A4
:10178200D1F700000000B5E0B093BA0515DAB1E078
:101792005B2EBEE93B2EB4E04B2E22240DD2552403
:1017A200BDE63B2EB4E04B2EB2E02B2E05D25524E3
:1017B200B7EE3B2EB4E04B2EB4E02B2EFDD1EBEF77
:1017C200F2E00995BFB7B068BFBFB3B1B4FDFDCFBA
:1017D200BFB7BF77BFBF0091B10000700093B100E7
:1017E20000918100007000938100B3B1B4FD04C088
:1017F200B3B1B3FD01C01FCF00C0B6E0B093BA05CC
:1018020029E11AE502EB0A95F1F71A95E1F72A9513
:10181200D1F700000000D0D9B1E05B2EBEE93B2E2B
:10182200B4E04B2E2224C8D15524BDE63B2EB4E0B1
:101832004B2EB2E02B2EC0D15524B8E93B2EB5E099
:101842004B2EB4E02B2EB8D1EBEFF2E00995BFB7E7
:10185200B068BFBFB3B1B4FDFDCFBFB7BF77BFBFE5
:101862000091B10000700093B100009181000070FE
:1018720000938100B3B1B4FD04C0B3B1B3FD01C0A4
:10188200DACE00C0B7E0B093BA0529E11AE502EB5F
:101892000A95F1F71A95E1F72A95D1F700000000B1
:1018A2008BD9B1E05B2EBEE93B2EB4E04B2E222455
:1018B20083D15524BDE63B2EB4E04B2EB2E02B2E55
:1018C2007BD15524BAE53B2EB5E04B2EB4E02B2E4E
:1018D20073D1EBEFF2E00995BFB7B068BFBFB3B108
:1018E200B4FDFDCFBFB7BF77BFBF0091B10000709D
:1018F2000093B10000918100007000938100B3B1A8
:10190200B4FD04C0B3B1B3FD01C095CEECCE0881E5
:10191200023009F4E8CE0881033009F429CF0881A6
:10192200043009F46ACF0881053009F4ABCF19C03D
:10193200113041F4188102E001171CF408810150B2
:1019420008830FC0123039F4088105301CF4088175
:101952000F5F088306C0163021F4BFB7BF77BFBF41
:1019620001C069CE5F904F903F902F90CDBFDEBFF8
:06197200DF91CF91089502
:1005F6001EDE00918000006200938000B0E1B0939F
:100606008700B2E3B09386000260009380000091F9
:100616008100086100938100B0E0B0938B00B9E1DE
:10062600B0938A000360009381000091B0000362DA
:100636000093B0000091B100102F18601093B10024
:10064600B3E3B093B300B5E0B093B400B0E0B7BB8A
:1006560000917000056000937000012F0260009306
:04066600B100089542
:100DAA00CF93DF93CDB7DEB72197CDBFDEBF2196B4
:100DBA002F923F924F925F92BFB7BF77BFBF222455
:100DCA003324D0D6088316E1101738F4BAE0B88372
:100DDA00BAE04B2E22243324C2DBEADE5524B9E0E2
:100DEA003B2EB4E04B2E2224E3D60881202F30E09C
:100DFA00220F331F0BED13E0F901E00FF11F0191F0
:100E0A001191B1E05B2E302E412EB3E02B2ED0D6BD
:100E1A0028805CD6188100E00117A0F4088110E050
:100E2A00015010409801220F331F0BED13E0F90116
:100E3A00E00FF11F019111915524302E412EB2E09D
:100E4A002B2EB6D608810631A0F4088110E00F5F78
:100E5A001F4F9801220F331F0BED13E0F901E00F2A
:100E6A00F11F019111915524302E412EB4E02B2E01
:100E7A009FD6ECEDF3E10995102F0030D1F3133032
:100E8A0079F44880222433246ADB92DE5524B1E2C5
:100E9A003B2EB4E04B2EB3E02B2E8AD68FDB1AC042
:100EAA00113049F40881013018F008810150088393
:100EBA0028800CD60EC0123049F40881063118F485
:100ECA0008810F5F0883288001D603C0163009F411
:100EDA0001C083CF5F904F903F902F90CDBFDEBF70
:060EEA00DF91CF91089595
:10056800CF93DF93CDB7DEB72297CDBFDEBF2196FD
:10057800288239820FB6BFB3B1FF01C0FCCFF8940F
:10058800BFB3BF7EBFBBBFB3BF7DBFBB1C2F2D2F6B
:10059800E12FF22F3196008102BDE12FF22F008169
:1005A80001BD40BCBFB3B460BFBBBFB3B260BFBB8B
:0E05B8000FBE2196CDBFDEBFDF91CF9108951B
:1005C60022E51BE200E00A95F1F71A95E1F72A9574
:0C05D600D1F700000000000000000895B4
:101F0200CF93DF93CDB7DEB72297CDBFDEBF219649
:101F12002F923F924F925F92BFB7BF77BFBFB7EE8C
:101F2200B4B9BFEFBAB9BCEFB7B9B0E0BBB92224BC
:101F320033241CDE08831091DE0120E017FD2FEF11
:101F42001017B0E02B0714F4B0E0B883EAE1F1E037
:101F52000995EDEDF5E009955524B1ED3B2EB1E083
:101F62004B2E222429DE0881202F30E0220F331F3E
:101F720008E512E0F901E00FF11F01911191B1E0C2
:101F82005B2E302E412EB3E02B2E16DE5524B4E507
:101F92003B2EB2E04B2EB5E02B2E0EDE0CD4098385
:101FA2000030E1F30981033059F4488022243324BC
:101FB200E4EBF2E0099528803EDD2880A1DE30C006
:101FC2000981013089F408812091DE0110E00217B5
:101FD200B0E027FDBFEF1B0724F408810F5F0883E1
:101FE20002C0B0E0B8831CC00981023061F41881DC
:101FF20000E0011720F408810150088303C000911A
:10200200DE0108830DC00981063031F400918100A0
:10201200087F0093810005C00981053009F496CF3D
:1020220095CF5F904F903F902F902196CDBFDEBF0E
:06203200DF91CF9108953B
:101A3800222D30E027FC3FEF220F331F0FED11E07E
:101A4800F901E00FF11F419151914093B80550936E
:101A5800B9050091B8050093A2050091B905009356
:101A6800A5058A0120E0322FE5E3F3E0099540E07F
:101A780050E060E07FE3E2E1F5E00995E8E3F3E0B8
:101A880009950093A3051093A4050091A30500935D
:101A9800A1050091A4050093A005B8E1B0938100C9
:101AA800B2E8B09380000091A505009387000091EB
:101AB800A205009386000091A0050093890000917B
:0E1AC800A10500938800B9E1B0938100089554
:06066A0068943EDE0895D5
:1002EA0047E16627552726F0332312F495DF60E8A5
:0402FA0049DF08953B
:1002220000951095209530950F5F1F4F2F4F3F4F30
:0202320008952D
:10018E00ECDF11F19F938F938EE790E0332351F0C4
:10019E00369527951795079548175907B4F44F5F6D
:1001AE005F4FF4CF80959095019622239AF0000F21
:1001BE00111F221F481759071CF041505040F5CF10
:1001CE00002711272227332708C033270FEF102FC0
:0C01DE002FE7322F8F919F91B6DF08951C
:10016800002329F4112319F4222309F433230895D1
:0001780087
:1001540009D039F041585F4F342F220F3695279537
:04016400362B089599
:100A2400042E152E262E372E68DC002E112E222E93
:040A3400332E0895C0
:1002FE0075DF81F1E62ED52EC42EB32EA22E912EB1
:10030E00802E002D112D222D332D68DF19F16E2533
:10031E004C0D5D1D40385307F4F441387FEF5707FD
:10032E00FCF088279927AA27BB2770E2B695A795D8
:10033E0097958795379527951795079520F4880DEE
:10034E00991DAA1DBB1D7A9589F7032F3A2F292FC8
:10035E00182F16DF0AC00FEF102F2FE73FE7FACF47
:0C036E000027102F202F302FF5CF08950E
:1001EA00BEDF79F0632F6078220F331F432F5FE75A
:1001FA00451B55275040269530E8232B33279894E2
:0A020A0003C0442755276627089516
:10067000BCDDF1F05523C2F04F31A8F44731C1F091
:1006800050F44195495E05C0359527951795079516
:100690004A95D1F70DC04751000F111F221F331F7C
:1006A0004A95D1F705C03FE7232F132F032F03C02F
:0806B000662309F0B6DD089590
:101D0200CF93DF93CDB7DEB72E97CDBFDEBF21963F
:101D12003F924F925F92B2E3B8830091B80510915F
:101D2200B90520E0322FE5E3F3E009950A871B8726
:101D32002C873D87088110E0212F312FE5E3F3E066
:101D420009952F9240E050E068EC72E4E1EFF2E096
:101D520009954A855B856C857D85E2E1F5E009950B
:101D6200E8E3F3E009950093A3051093A405EDEDD4
:101D7200F5E009955524B1ED3B2EB1E04B2E22241E
:101D82001BDF5524B7EB3B2EB2E04B2EB2E02B2EDD
:101D920013DF2F90222D30E027FC3FEF220F331F5D
:101DA20008E512E0F901E00FF11F019111912F9264
:101DB200B1E05B2E302E412EB3E02B2EFDDE5524FA
:101DC200BCEA3B2EB2E04B2EB4E02B2EF5DE8E01A8
:101DD2000E5F1F4F302E412E2880ECE1F5E0099571
:101DE2008E010E5F1F4FB1E05B2E302E412EB5E00B
:101DF2002B2EE2DE2F900091A3050093A105009106
:101E0200A4050093A0050091A0050093890000910C
:101E1200A105009388002F92CED42F900983003021
:101E2200D1F30981033009F424C00981013039F466
:101E32000881023618F408810E5F08831AC00981EE
:101E4200023041F4188104E0011718F408810250AD
:101E520008830FC00981063031F400918100087FA8
:101E62000093810007C00981053019F4B2E3B883F9
:101E720054CF53CF5F904F903F902D96CDBFDEBF92
:061E8200DF91CF910895ED
:100A3800CF93DF93CDB7DEB72297CDBFDEBF219628
:100A480010E0133050F4E12FF0E0E30DF41DB0E2B4
:100A5800B083012F0F5F102FF4CFE12FF0E0E30DEB
:100A6800F41DB0E0B083012F0150302F032F10E0A8
:100A7800030D141D088319834AE0022D26DC092F73
:100A8800202F205D08811981F80120834AE0022D7A
:100A98001CDC202E003009F404C0032F0150302F35
:0E0AA800E5CF2196CDBFDEBFDF91CF9108953F
:1002D200992779E004C0991F941708F0941B001F16
:0802E2007A95C9F70095089513
:1005E200042E152E262E372E1CDF002E112E222E23
:0405F200332E089507
:100424003F932F931F930F93002D112D222D332DC6
:10043400DADE09F44BC0E62ED52EC42EB32EA22E3E
:10044400912E802E0F911F912F913F91CCDE61F15F
:100454006E254C195D09403853073CF541387FEF50
:1004640057077CF180E27724632E522E412E302FE1
:10047400222711270027000F111F221F331F441C9E
:10048400551C661C771C28F0481859086A087B0814
:1004940004C0480C591C6A1C7B1C0AF001608A9534
:1004A40051F74150504071DE16C00FEF102F2FE767
:1004B4003FE76623C9F356DEB9F3342D30E834251B
:1004C400F3CF0027102F202F302FEECF0F900F9057
:0804D4000F900F90EACF08958C
:10204600CF93DF93CDB7DEB72197CDBFDEBF219605
:102056002F923F924F925F92BFB7BF77BFBFB7EE47
:10206600B4B9BFEFBAB9BFEFB7B9B0E0BBB9B0E02A
:10207600B883EAE1F1E0099504B5036304BDB5B59B
:10208600B860B5BDEDEDF5E009955524BBE33B2EF3
:10209600B2E04B2E22248EDD0881003011F401E0DF
:1020A60001C000E0502EB3E33B2EB2E04B2EB1E070
:1020B6002B2E80DD0881013011F401E001C000E023
:1020C600502EBEE43B2EB2E04B2EB2E02B2E72DD3C
:1020D6000881023011F401E001C000E0502EB8E49E
:1020E6003B2EB2E04B2EB3E02B2E64DD088103308D
:1020F60011F401E001C000E0502EBBEC3B2EB1E034
:102106004B2EB4E02B2E56DD0881043011F401E08D
:1021160001C000E0502EB0E43B2EB1E04B2EB5E0FE
:102126002B2E48DD46D3102F0030E1F3133009F093
:1021360059C046C0B0E2B7BDB0E1B8BD05B5016053
:1021460005BDB0E23B2E2880E8E7F7E0099591CF80
:10215600B0E1B7BDB8E0B8BD05B5016005BDB0E1F9
:102166003B2E2880E8E7F7E0099583CFB8E0B7BDB6
:10217600B4E0B8BD05B5016005BDB8E03B2E2880CA
:10218600E8E7F7E0099575CFB4E0B7BDB2E0B8BDB2
:1021960005B5016005BDB4E03B2E2880E8E7F7E011
:1021A600099567CFB2E0B7BDB1E0B8BD05B501602E
:1021B60005BDB2E03B2E2880E8E7F7E0099559CF48
:1021C6000881003009F4B6CF0881013009F4C0CF88
:1021D6000881023059F208810330B1F208810430D7
:1021E60009F31BC0113039F40881013018F0088159
:1021F6000150088312C0123039F40881043018F4F3
:1022060008810F5F088309C0163021F405B50070F8
:1022160005BD04C0153009F42CCF2BCF5F904F902D
:0E2226003F902F90CDBFDEBFDF91CF91089586
:100EF000CF93DF93CDB7DEB72697CDBFDEBF219668
:100F00004F925F9218B504E6109F80013F922F9296
:100F1000432D50E037FC5FEF06DE8B01002E04E628
:100F200000190D834ADE5524BBE33B2EB2E04B2E65
:100F3000222443D65524B7EB3B2EB2E04B2EB2E031
:100F40002B2E3BD62F903F9046C03F922F92B1E080
:100F50005B2EB3E33B2EB2E04B2EB3E02B2E2DD60F
:100F60002F903F904AC03F922F92B1E05B2EBEE49B
:100F70003B2EB2E04B2EB3E02B2E1FD62F903F908E
:100F80003CC03F922F92B1E05B2EB8E43B2EB2E022
:100F90004B2EB3E02B2E11D62F903F902EC03F92B8
:100FA0002F92B1E05B2EBBEC3B2EB1E04B2EB3E0B9
:100FB0002B2E03D62F903F9020C03F922F92B1E06E
:100FC0005B2EB0E43B2EB1E04B2EB3E02B2EF5D5DB
:100FD0002F903F9012C0B0E02B1609F4B6CFB1E0CD
:100FE0002B1609F4C0CFB2E02B1609F4CACFB3E038
:100FF0002B16A9F2B4E02B1601F33F922F92552441
:10100000BCEA3B2EB2E04B2EB4E02B2ED6D58E019F
:101010000F5F1F4F302E412E2D800EDD8E010F5F92
:101020001F4FB1E05B2E302E412EB5E02B2EC5D5E3
:101030002F903F903F922F92ECEDF3E109952F9086
:101040003F9008830030B1F30881033009F434C0C5
:101050000881013041F418B502E0011718F408B511
:10106000015008BD29C00881023061F408B510E0C4
:101070000315B0E037FCBFEF1B071CF408B50F5F8A
:1010800008BD1AC00881063021F405B5007005BD01
:1010900014C00881053081F442E03F922F9250E065
:1010A00047FD5FEF032D10E037FC1FEF3CDD062FFF
:1010B0002F903F9008BD26CF25CF5F904F9025966B
:0A10C000CDBFDEBFDF91CF91089590
:10223400CF93DF93CDB7DEB72A97CDBFDEBF21960C
:102244002F923F924F925F926F927F92BFB7BF7768
:10225400BFBFB7EEB4B9BFEFBAB9BCEFB7B9B0E01E
:10226400BBB9EAE1F1E00995B0E0B0937C00B0E0DD
:10227400B0937A00B0E0B0937B00B0E0B0937E00FE
:10228400B0917A00B068B0937A00B0E6B0937C0065
:1022940000917A00076000937A00EDEDF5E009956E
:1022A4005524BDEF3B2EB2E04B2E222484DC662461
:1022B400B9E24B2EB3E05B2EB1E03B2E2224E8EAD8
:1022C400F8E009956624BAE14B2EB3E05B2EB2E048
:1022D4003B2E2224E8EAF8E009956624BBED4B2E58
:1022E400B2E05B2EB3E03B2E2224E8EAF8E0099545
:1022F4006624BCEC4B2EB2E05B2EB4E03B2E2224D1
:10230400E8EAF8E009956624BEEE4B2EB2E05B2EB7
:10231400B5E03B2E2224E8EAF8E009954BD2088385
:10232400B5B1BD7FB5B921E11CE30CEC0A95F1F719
:102334001A95E1F72A95D1F7B1E02B2EE5E6F8E0FE
:10234400099510E0212F312FE5E3F3E00995409141
:10235400EA025091EB026091EC027091ED02E2E12D
:10236400F5E00995AE014B5F5F4F3A011801290171
:10237400EAE3F6E009958E010B5F1F4F66242801FE
:10238400B2E03B2EB8E12B2EE8EAF8E0099566248A
:10239400BCE34B2EB3E05B2EB3E03B2EB8E12B2E17
:1023A400E8EAF8E009952224E5E6F8E0099510E06A
:1023B400212F312FE5E3F3E009954091EA02509192
:1023C400EB026091EC027091ED02E2E1F5E0099517
:1023D40009831A832B833C83AE014B5F5F4F3A0121
:1023E40018012901EAE3F6E009958E010B5F1F4FFE
:1023F40066242801B4E03B2EB8E12B2EE8EAF8E08D
:10240400099549815A816B817C810AE919E921EA9C
:1024140030E4E4E2F9E0099540E050E060E074E47F
:10242400E1EFF2E0099540E050E06AE774E4E2E1AC
:10243400F5E00995AE014B5F5F4F3A0118012901A0
:10244400EAE3F6E009958E010B5F1F4F662428012D
:10245400B5E03B2EB8E12B2EE8EAF8E00995B5B1DA
:10246400B260B5B921E11CE30CEC0A95F1F71A95B9
:10247400E1F72A95D1F7B1E02B2EE5E6F8E00995CE
:1024840010E0212F312FE5E3F3E009954091EA02B2
:102494005091EB026091EC027091ED02E2E1F5E003
:1024A400099509831A832B833C83AE014B5F5F4FED
:1024B4003A0118012901EAE3F6E009958E010B5F60
:1024C4001F4F66242801B2E03B2EBCE32B2EE8EA22
:1024D400F8E0099549815A816B817C810AE919E9FF
:1024E40021EA30E4E4E2F9E0099540E050E860E0F4
:1024F40074E4E1EFF2E0099540E050E06AE774E447
:10250400E2E1F5E00995AE014B5F5F4F3A01180136
:102514002901EAE3F6E009958E010B5F1F4F66245B
:102524002801B3E03B2EBCE32B2EE8EAF8E0099542
:102534002224E5E6F8E0099510E0212F312FE5E3A8
:10254400F3E009954091EA025091EB026091EC02AC
:102554007091ED02E2E1F5E0099509831A832B837A
:102564003C83AE014B5F5F4F3A0118012901EAE356
:10257400F6E009958E010B5F1F4F66242801B4E035
:102584003B2EBCE32B2EE8EAF8E0099549815A81F9
:102594006B817C810AE919E921EA30E4E4E2F9E09B
:1025A400099540E050E060E074E4E1EFF2E0099561
:1025B40040E050E06AE774E4E2E1F5E00995AE0139
:1025C4004B5F5F4F3A0118012901EAE3F6E00995F0
:1025D4008E010B5F1F4F66242801B5E03B2EBCE340
:1025E4002B2EE8EAF8E009950881063009F096CE2A
:1025F4007F906F905F904F903F902F902996CDBF22
:08260400DEBFDF91CF910895C4
:1010CA00CF93DF93CDB7DEB72397CDBFDEBF21968F
:1010DA00B7E0B883B0E0B983BA83B0E02B1631F435
:1010EA00B0917C00BE7FB0937C0005C0B0917C00BB
:1010FA00B160B0937C00B1DDB0917A00B064B09376
:10110A007A0000917A0006FDFCCF29813A8100918C
:10111A00790010E0020F131F09831A8318810881CE
:10112A000150088300E0011734F309811A811695EA
:10113A00079516950795169507952296CDBFDEBF9A
:06114A00DF91CF91089532
:100C7400CF93DF93CDB7DEB72F97CDBFDEBF2196DD
:100C8400F301B0E3B083F3013196BEE2B083F30124
:100C94003296B0E3B083F3013396B0E3B083F3014B
:100CA4003496B0E0B0838E017F926F925F924F9240
:100CB4003F922F923801FEDC2F903F904F905F902F
:100CC4006F907F905F924F923F922F924AE057ED40
:100CD40063E27CE38101920153DB002800E009F028
:100CE40001E02F903F904F905F90002309F055C092
:100CF4005F924F923F922F924DEC5CEC6CEC7DE353
:100D0400810192013DDB002800E009F001E02F9011
:100D14003F904F905F90002351F0162D272D1D5FBB
:100D24002F4FFE010081E12FF22F008336C040E0F7
:100D340050E060E87FE38101920122DB002800E0BB
:100D440009F001E0002399F0162D272D1E5F2F4F87
:100D5400FE010081E12FF22F008393012D5F3F4FAD
:100D64008E01F80132960081F901008316C0FE015C
:100D74000081F301008393012E5F3F4F8E01F80140
:100D840032960081F901008393012D5F3F4F8E015C
:100D9400F80133960081F90100832E96CDBFDEBFA2
:060DA400DF91CF910895DC
:1006B800CF93DF93CDB7DEB72697CDBFDEBF2196A8
:1006C8002F923F924F925F92B0E0BC83B0E0BD831F
:1006D800288239824A825B82088119812A813B817A
:1006E8003F3F29F42F3F19F41F3F09F40F3F41F40E
:1006F800B8E34B2EB3E05B2E130147DE03E084C161
:1007080061E08E01F8013396008107FF16C08E0163
:1007180098012D5F3F4FF9010081B0E80B27F901DF
:100728000083062F0F5F202FF301BDE2B083830102
:100738000F5F1F4F3801422F01C0462F08811981D2
:100748002A813B81303029F4203019F4103009F423
:10075800003041F4B5E44B2EB3E05B2E130115DEF7
:1007680000E052C1088119812A813B813F3729F471
:10077800203819F4103009F4003051F44F93B1E4E3
:100788004B2EB3E05B2E130100DE4F91042F3CC1CA
:100798005F924F923F922F9240E050E060E87FE3F3
:1007A800088119812A813B81E9DD002800E009F0F0
:1007B80001E02F903F904F905F900023C9F05F9227
:1007C8004F923F922F92088119812A813B8140E004
:1007D80050E060E271E422D12F903F904F905F90FB
:1007E800088319832A833B830D8101500D83D0CF61
:1007F8005F924F923F922F9240E050E060E271E4A6
:10080800088119812A813B81D5DD002800E009F0A3
:1008180001E02F903F904F905F900023C9F05F92C6
:100828004F923F922F92088119812A813B814DEC8A
:100838005CEC6CEC7DE3F2D02F903F904F905F9092
:10084800088319832A833B830D810F5F0D83D0CFE3
:10085800088119812A813B81000F111F221F331F34
:10086800088319832A833B838E01F801339600811C
:100878000F57402F8E01F8013396B1E0B0830881FD
:1008880019812A813B81B42FBB2331F0000F111F3E
:10089800221F331FBA95D1F7088319832A833B8314
:1008A8008E01F80133960081005DF3010083830116
:1008B8000F5F1F4F38010D8101302CF01D8106E0BC
:1008C80001170CF009C0F301BEE2B08383010F5F8A
:1008D8001F4F3801B1E0BC8386E0803009F44BC07B
:1008E8008E01F8013396B0E0B083088119812A811E
:1008F8003B81A801B901440F551F661F771F440F9C
:10090800551F661F771F088119812A813B81040FB3
:10091800151F261F371F088319832A833B830881E5
:1009280019812A813B81000F111F221F331F088361
:1009380019832A833B838E01F80133960081005D79
:10094800F301008383010F5F1F4F38010C810030D2
:1009580071F40D8101500D83003049F4F301BEE2BA
:10096800B08383010F5F1F4F3801B1E0BC83082FAC
:100978000150802FB2CFF30131970081003329F461
:100988008301015010403801F6CFF30131970081FF
:100998000E3221F483010150104038010D810030DE
:1009A80079F1F301B5E6B08383010F5F1F4F38017A
:1009B8000D8100305CF4F301BDE2B08383010F5F69
:1009C8001F4F38010D8000E000190D832D811D8116
:1009D80009E0011750F4022F4AE077DC005DF301CB
:1009E800008383010F5F1F4F3801022F4AE06DDC3F
:1009F800092F005DF301008383010F5F1F4F38014A
:100A0800F301B0E0B08300E05F904F903F902F90EB
:0C0A18002596CDBFDEBFDF91CF91089581
:10039200A1019A018A010F5F1F4FA801F201820198
:1003A2000F5F1F4F28010081F9010083F9010081CD
:0A03B200002309F0EECF8101089549
:0E03840047DF1CF40024039401C000240895F8
:0E021400042E152E262E372EADDF0023089562
:10017800EADF332332F0F4DF11F001E003C0002797
:0601880001C00FEF089515
:06014E006894A3DF089590
:10009800F8DF09F441C0E62ED52EC42EB32EA22EC9
:1000A800912E802E002D112D222D332DEADF09F4FB
:1000B8003DC0842F952F8C199D09B9F072F4909545
:1000C800809501964C2D5D2D883180F535952795C5
:1000D800179507950197D1F708C08831E8F4B594CA
:1000E800A794979487940197D1F766272EF0080D67
:1000F800191D2A1D3B1D09C0801A910AA20AB30ABC
:10010800082D192D2A2D3B2D332312F486D060E8B3
:100118003AD001C01BD016C0002D112D222D332D31
:10012800D6F71ED0C1F340E83427F5CF082D192D96
:100138002A2D3B2D4C2D5D2D6E2D33235AF76DD076
:0601480060E8E8CF089515
:0E008A00AFD021F0662309F0C7D098940895F6
:0E03BC002BDF1CF00024039401C000240895E0
:06124200E89452D8089563
:10124800042E152E262E372EE7EAF0E00995002EFB
:08125800112E222E332E089501
:0E203800EC2FFD2F05900D920197E1F7089512
:103A8200A0E0B1E0C2EED5E380EA94E000E50F9356
:103A92000DE10F930CE10F9300E10F930895089548
:102DD000BF93BFB7BF93BF91BFBFBF91FF91EF91AB
:022DE000189544
:102A8E00BF93BFB7BF93BF91BFBFBF91FF91EF91F0
:022A9E00189589
:102AA4000F931F932F933F93BF93BFB7BF9300918F
:102AB400BA050030B1F50BB101600BB900E10A951C
:102AC400F1F7BBB1B260BBB900E10A95F1F70BB104
:102AD40004600BB900E10A95F1F70BB1087F0BB95B
:102AE40000000BB102600BB900E10A95F1F70BB1DC
:102AF40004600BB900E10A95F1F70BB1087F0BB93B
:102B040000000BB104600BB900E10A95F1F70BB1B9
:102B140001600BB900E10A95F1F70BB1087F0BB91D
:102B2400A7C00091BA05013049F4B1E0BBB900E88F
:102B34000A95F1F70BB1087F0BB99AC00091BA0559
:102B4400023051F40BB102600BB900E80A95F1F7B9
:102B54000BB1087F0BB98CC00091BA05033061F446
:102B64000BB104600BB90AE70A95F1F70000000005
:102B74000BB1087F0BB97CC00091BA05043009F091
:102B84004AC005E00A95F1F700000BB101600BB9EA
:102B94000AE00A95F1F7000000000BB102600BB9DE
:102BA4000AE00A95F1F7000000000BB104600BB9CC
:102BB4000AE00A95F1F7000000000BB1087F0BB999
:102BC400000000000BB102600BB90AE00A95F1F7AE
:102BD400000000000BB104600BB90AE00A95F1F79C
:102BE400000000000BB1087F0BB9000000000BB11E
:102BF40004600BB90AE00A95F1F7000000000BB17C
:102C040001600BB90AE00A95F1F7000000000BB16E
:102C1400087F0BB92DC00091BA05053059F40BB1EA
:102C240001600BB905E50A95F1F700000BB1087FC7
:102C34000BB91EC00091BA05063059F40BB10260FD
:102C44000BB905E50A95F1F700000BB1087F0BB944
:102C54000FC00091BA05073059F40BB104600BB9E9
:102C640005E50A95F1F700000BB1087F0BB900C028
:102C7400BF91BFBFBF913F912F911F910F91FF91C2
:042C8400EF9118951F
:102DE20043502D31323531206E6F726D616C20206F
:102DF200FFFFFFFFFFFFFFFFFFFFFFFFFFFFFFFFE1
:102E0200FFFFFFFFFFFFFFFFFFFFFFFFFFFFFFFFD0
:102E1200FFFFFFFFFFFFFFFFFFFFFFFFFFFFFFFFC0
:102E2200FFFFFFFFFFFFFFFFFFFFFFFFFFFFFFFFB0
:102E3200FFFFFFFFFFFFFFFFFFFFFFFFFFFFFFFFA0
:102E4200FFFFFFFFFFFFFFFFFFFFFFFFFFFFFFFF90
:102E5200FFFFFFFFFFFFFFFFFFFFFFFFFFFFFFFF80
:102E6200FFFFFFFFFFFFFFFFFFFFFFFFFFFFFFFF70
:102E7200FFFFFFFFFFFFFFFFFFFFFFFFFFFFFFFF60
:102E8200FFFFFFFFFFFFFFFFFFFFFFFFFFFFFFFF50
:102E9200FFFFFFFFFFFFFFFFFFFFFFFFFFFFFFFF40
:102EA200FFFFFFFFFFFFFFFFFFFFFFFFFFFFFFFF30
:102EB200FFFFFFFFFFFFFFFFFFFFFFFFFFFFFFFF20
:102EC200FFFFFFFFFFFFFFFFFFFFFFFFFFFFFFFF10
:102ED200FFFFFFFFFFFFFFFFFFFFFFFFFFFFFFFF00
:102EE200000000000000002000005F000000002140
:102EF2000007000700000022147F147F1400002343
:102F0200242A7F2A12000024231308646200002569
:102F12003649552250000026000503000000002714
:102F2200001C2241000000280041221C0000002950
:102F3200082A1C2A0800002A08083E080800002B5C
:102F4200005030000000002C080808080800002D7E
:102F5200006060000000002E201008040200002F14
:102F62003E5149453E00003000427F4000000031A2
:102F720042615149460000322141454B3100003344
:102F82001814127F100000342745454539000035DA
:102F92003C4A4949300000360171090503000037F7
:102FA2003649494936000038064949291E00003988
:102FB200003636000000003A005636000000003BA2
:102FC200000814224100003C141414141400003DA3
:102FD200412214080000003E020151090600003F90
:102FE200324979413E0000407E1111117E000041BC
:102FF2007F494949360000423E4141412200004397
:103002007F4141221C0000447F494949410000455B
:103012007F090901010000463E414151320000474B
:103022007F0808087F00004800417F4100000049F6
:103032002040413F0100004A7F0814224100004B1A
:103042007F4040404000004C7F0204027F00004D60
:103052007F0408107F00004E3E4141413E00004F78
:103062007F090909060000503E4151215E000051CE
:103072007F09192946000052464949493100005347
:1030820001017F01010000543F4040403F000055D4
:103092001F2040201F0000567F2018207F0000576D
:1030A20063140814630000580304780403000059F1
:1030B200615149454300005A00007F414100005BD5
:1030C200020408102000005C41417F000000005D06
:1030D200040201020400005E404040404000005FE4
:1030E2000010200400000060205454547800006155
:1030F2007F4844443800006238444444200000635E
:10310200384444487F000064385454541800006521
:10311200087E090102000066081454543C0000674E
:103122007F0804047800006800447D4000000069C4
:103132002040443D0000006A007F10284400006BDC
:1031420000417F400000006C7C0418047800006D90
:103152007C0804047800006E384444443800006F50
:103162007C14141408000070081414187C000071F8
:103172007C08040408000072485454542000007370
:10318200043F4440200000743C4040207C00007515
:103192001C2040201C0000763C4030403C00007760
:1031A20044281028440000780C5050503C0000790C
:1031B2004464544C4400007A000836410000007B0D
:1031C20000007F000000007C004136080000007D06
:1031D20008082A1C08000000081C2A080800007FB2
:1031E200FFFFFFFFFFFFFFFFFFFFFFFFFFFFFFFFED
:1031F200FFFFFFFFFFFFFFFFFFFFFFFFFFFFFFFFDD
:10320200FFFFFFFFFFFFFFFFFFFFFFFFFFFFFFFFCC
:10321200FFFFFFFFFFFFFFFFFFFFFFFFFFFFFFFFBC
:10322200FFFFFFFFFFFFFFFFFFFFFFFFFFFFFFFFAC
:10323200FFFFFFFFFFFFFFFFFFFFFFFFFFFFFFFF9C
:10324200FFFFFFFFFFFFFFFFFFFFFFFFFFFFFFFF8C
:10325200FFFFFFFFFFFFFFFFFFFFFFFFFFFFFFFF7C
:10326200FFFFFFFFFFFFFFFFFFFFFFFFFFFFFFFF6C
:10327200FFFFFFFFFFFFFFFFFFFFFFFFFFFFFFFF5C
:10328200FFFFFFFFFFFFFFFFFFFFFFFFFFFFFFFF4C
:10329200FFFFFFFFFFFFFFFFFFFFFFFFFFFFFFFF3C
:1032A200FFFFFFFFFFFFFFFFFFFFFFFFFFFFFFFF2C
:1032B200FFFFFFFFFFFFFFFFFFFFFFFFFFFFFFFF1C
:1032C200FFFFFFFFFFFFFFFFFFFFFFFFFFFFFFFF0C
:1032D200FFFFFFFFFFFFFFFFFFFFFFFFFFFFFFFFFC
:1032E200FFFFFFFFFFFFFFFFFFFFFFFFFFFFFFFFEC
:1032F200FFFFFFFFFFFFFFFFFFFFFFFFFFFFFFFFDC
:10330200FFFFFFFFFFFFFFFFFFFFFFFFFFFFFFFFCB
:10331200FFFFFFFFFFFFFFFFFFFFFFFFFFFFFFFFBB
:103322007E4B4A4B420000F0FFFFFFFFFFFFFFFF13
:10333200FFFFFFFFFFFFFFFFFFFFFFFFFFFFFFFF9B
:10334200FFFFFFFFFFFFFFFFFFFFFFFFFFFFFFFF8B
:10335200FFFFFFFFFFFFFFFFFFFFFFFFFFFFFFFF7B
:10336200FFFFFFFFFFFFFFFFFFFFFFFFFFFFFFFF6B
:10337200FFFFFFFFFFFFFFFFFFFFFFFFFFFFFFFF5B
:10338200FFFFFFFFFFFFFFFFFFFFFFFFFFFFFFFF4B
:10339200FFFFFFFFFFFFFFFFFFFFFFFFFFFFFFFF3B
:1033A20038555455180000F1FFFFFFFFFFFFFFFFE4
:1033B200FFFFFFFFFFFFFFFFFFFFFFFFFFFFFFFF1B
:1033C200FFFFFFFFFFFFFFFFFFFFFFFFFFFFFFFF0B
:1033D200FFFFFFFFFFFFFFFFFFFFFFFFFFFFFFFFFB
:1033E2007E1111117E0000807F4949493000008121
:1033F2007F494949360000827F01010101000083B3
:10340200603E213F600000847F49494941000085B8
:1034120067187F18670000862241494936000087F5
:103422007F1008047F0000887F1009047F00008954
:103432007F0814224100008A403E01017E00008B79
:103442007F0204027F00008C7F0808087F00008D45
:103452003E4141413E00008E7F0101017F00008F0D
:103462007F090909060000903E4141412200009176
:1034720001017F0101000092274848483F00009364
:103482001E217F211E00009463140814630000951E
:103492003F20203F400000961F1010107F00009731
:1034A2007F407F407F0000983F203F207F000099AF
:1034B200017F44443800009A7F447C007F00009BD7
:1034C2007F4444443800009C224149493E00009D0B
:1034D2007F087F417F00009E462919097F00009FD7
:1034E20020545454780000A03C4A4A4B300000A1BA
:1034F2007C545458200000A27C040404040000A35D
:103502006038243C600000A438545454180000A5CC
:1035120074087C08740000A628445454280000A7AC
:103522007C2010087C0000A87C2112097C0000A9E4
:103532007C101028440000AA407804047C0000ABF0
:103542007C0810087C0000AC7C1010107C0000ADE0
:1035520038444444380000AE7C0404047C0000AFCC
:103562007C141414080000E038444444280000E1AC
:1035720004047C04040000E20C5050503C0000E3C0
:1035820018247C24180000E444281028440000E594
:103592003C20203C400000E61C2020207C0000E76C
:1035A2007C407C407C0000E83C203C207C0000E920
:1035B200047C4848300000EA7C4848307C0000EB3C
:1035C2007C484848300000EC28445454380000ED50
:1035D2007C384444380000EE483414147C0000EF78
:0D35E20031303234783736382D362D320036
:0D35EF0031303234783736382D362D320029
:0D35FC0031323830783830302D362D320025
:0D36090031303234783736382D382D31000D
:0C361600383030783630302D382D31003F
:063622003820CCC3F600C5
:0D36280031303234783736382D362D3100F0
:0D36350031303234783630302D362D3200F1
:0D36420031343430783930302D382D3100DE
:0D364F0031343430783930302D362D3200D2
:0D365C0031363030783930302D362D3200C7
:0E3669003134343078313035302D362D32008A
:0E3677003132383078313032342D382D310078
:0E3685003132383078313032342D362D32006B
:0D36930031333636783736382D382D31007A
:0D36A00031333636783736382D362D32006E
:0636AD003420CCC3F6003E
:0D36B300C3E5EDE5F0E0F2EEF020CDD7002C
:0136C00029E0
:1036C100FF7C7F3E3F1F9F0F690ACF073F063405EE
:1036D1007504E70377031F03D602990266023A02D3
:1036E1001402F301D501BB01A4018F017B016A0121
:1036F1005A014C013F01320127011C01120109014C
:10370100E300C700B0009F00900084007A007100C0
:0437110069006300E8
:08371500302E3520CCC3F60074
:0D371D00C3E5EDE5F0E0F2EEF020C2D700CC
:06372A003220CCC3F600C2
:063730003120CCC3F600BD
:0437360020C3F600B6
:10373A00AD04B1048C0492049804B704D204D904E9
:10374A00E004BD04C404CB0443044A0451042E0417
:10375A0035043C04580477047E0485045F04660437
:10376A0067056E0575055305600591057C0583059A
:10377A008A050D0514051B053B0543054B05230565
:04378A002B053305D3
:0B378E00E7E0EFEEEBEDE5EDE8E50015
:08379900F7E0F1F2EEF2E000AE
:0D37A10031363030783930302D382D310080
:0F37AE00556F20202D2E2D2D20202D2E2D2D005E
:0F37BD00496920202D2E2D2D20202D2E2D2D0061
:0437CC009A99A13CE9
:0F37D000496F20202D2E2D2D20202D2E2D2D0048
:0F37DF00D2E5F1F2E5F020EEEFF2EEEFE0F000D0
:0E37EE0056474120C3E5EDE5F0E0F2EEF000B5
:0F37FC00556920202D2E2D2D20202D2E2D2D0016
:0F380B00202020204F4646202020204F6E2000F6
:04381A004E614E00AD
:05381E00302E303000E7
:04382300494E4600C4
:0238270030006F
:0E3829003139323078313038302D382D3200C0
:0E3837003139323078313038302D382D3100B3
:1038450020014010410860502104024411484261A2
:073855005149094503054339
:0E385C003139323078313230302D362D320095
:0E386A003136383078313035302D362D320081
:0E3878003136303078313230302D382D31007D
:0E3886003139323078313038302D362D320065
:0E3894003136383078313035302D382D310056
:0F38A2005665722031322E30342E3230323000E3
:0C38B100284329204B5757736F667400A2
:1038BD003401530146010D01000127011A01A30135
:1038CD009501BE01B1016D01600187017A01BF0251
:0E38DD0096038803B203A403550347037A033E
:0A38EB004C564453207479706500B8
:0E38F500D2E5F1F2E5F020ECE0F2F0E8F600AA
:0D3903004C5644532073617665642021000A
:073910003238203032310093
:07391700333020303138008D
:07391E00333220303030008D
:07392500323220303038007F
:07392C003234203032340078
:07393300323620303136006E
:07393A003334203034320069
:073941003432203130350063
:073948003434203037370052
:0A394F00E3E5EDE5F0E0F6E8FF0027
:073959003336203033360045
:073960003338203030350040
:073967003430203030300045
:06396E0032203030300071
:0639740034203030300069
:06397A0036203030300061
:0F3980002038303078363030203630C3F6200013
:04398F00353030009F
:063993003120303030004D
:0639990038203030300040
:07399F00313620303030000A
:0739A60031382030313800F8
:0739AD003230203030300001
:0739B40031302030303000FB
:0739BB0031322030303300EF
:0739C20031342030313000E8
:0839C900EAF0E0F1EDFBE9007A
:0F39D100F6E2E5F2EDFBE520EFEEEBEEF1FB00A9
:0F39E0002036343078343830203630C3F62000AB
:0739EF0038302030303000B9
:0739F60039302033393500A0
:0839FD00313030203030300081
:083A050031343020333531006B
:083A0D0031353020393433005B
:083A1500313630203030300062
:083A1D00313130203334350053
:083A2500313231203132310051
:083A2D0031333120313438003F
:073A3500353220313137006A
:063A3C00F1E8EDE8E900ED
:073A4200353420303534005B
:073A49003436203130390052
:073A50003438203034380047
:073A57003530203030300053
:073A5E003538203138320039
:073A6500363020313530003E
:073A6C00373020313735002F
:073A7300353620313430002C
:083A7A00E7E5EBE5EDFBE900D7
:00000001FF
